{
  "_format": "hh-sol-artifact-1",
  "contractName": "MinterEgypt",
  "sourceName": "contracts/MinterEgypt.sol",
  "abi": [
    {
      "inputs": [],
      "stateMutability": "nonpayable",
      "type": "constructor"
    },
    {
      "anonymous": false,
      "inputs": [
        {
          "indexed": true,
          "internalType": "address",
          "name": "owner",
          "type": "address"
        },
        {
          "indexed": true,
          "internalType": "address",
          "name": "approved",
          "type": "address"
        },
        {
          "indexed": true,
          "internalType": "uint256",
          "name": "tokenId",
          "type": "uint256"
        }
      ],
      "name": "Approval",
      "type": "event"
    },
    {
      "anonymous": false,
      "inputs": [
        {
          "indexed": true,
          "internalType": "address",
          "name": "owner",
          "type": "address"
        },
        {
          "indexed": true,
          "internalType": "address",
          "name": "operator",
          "type": "address"
        },
        {
          "indexed": false,
          "internalType": "bool",
          "name": "approved",
          "type": "bool"
        }
      ],
      "name": "ApprovalForAll",
      "type": "event"
    },
    {
      "anonymous": false,
      "inputs": [
        {
          "indexed": false,
          "internalType": "uint256",
          "name": "_fromTokenId",
          "type": "uint256"
        },
        {
          "indexed": false,
          "internalType": "uint256",
          "name": "_toTokenId",
          "type": "uint256"
        }
      ],
      "name": "BatchMetadataUpdate",
      "type": "event"
    },
    {
      "anonymous": false,
      "inputs": [
        {
          "indexed": false,
          "internalType": "uint256",
          "name": "_tokenId",
          "type": "uint256"
        }
      ],
      "name": "MetadataUpdate",
      "type": "event"
    },
    {
      "anonymous": false,
      "inputs": [
        {
          "indexed": false,
          "internalType": "uint256",
          "name": "amount",
          "type": "uint256"
        }
      ],
      "name": "ReceivedEth",
      "type": "event"
    },
    {
      "anonymous": false,
      "inputs": [
        {
          "indexed": true,
          "internalType": "address",
          "name": "from",
          "type": "address"
        },
        {
          "indexed": true,
          "internalType": "address",
          "name": "to",
          "type": "address"
        },
        {
          "indexed": true,
          "internalType": "uint256",
          "name": "tokenId",
          "type": "uint256"
        }
      ],
      "name": "Transfer",
      "type": "event"
    },
    {
      "stateMutability": "payable",
      "type": "fallback"
    },
    {
      "inputs": [],
      "name": "_tokenIds",
      "outputs": [
        {
          "internalType": "uint256",
          "name": "_value",
          "type": "uint256"
        }
      ],
      "stateMutability": "view",
      "type": "function"
    },
    {
      "inputs": [
        {
          "internalType": "address",
          "name": "to",
          "type": "address"
        },
        {
          "internalType": "uint256",
          "name": "tokenId",
          "type": "uint256"
        }
      ],
      "name": "approve",
      "outputs": [],
      "stateMutability": "nonpayable",
      "type": "function"
    },
    {
      "inputs": [
        {
          "internalType": "address",
          "name": "owner",
          "type": "address"
        }
      ],
      "name": "balanceOf",
      "outputs": [
        {
          "internalType": "uint256",
          "name": "",
          "type": "uint256"
        }
      ],
      "stateMutability": "view",
      "type": "function"
    },
    {
      "inputs": [
        {
          "internalType": "string",
          "name": "tokenURI",
          "type": "string"
        }
      ],
      "name": "createFile",
      "outputs": [
        {
          "internalType": "uint256",
          "name": "",
          "type": "uint256"
        }
      ],
      "stateMutability": "payable",
      "type": "function"
    },
    {
      "inputs": [
        {
          "internalType": "uint256",
          "name": "tokenId",
          "type": "uint256"
        }
      ],
      "name": "getApproved",
      "outputs": [
        {
          "internalType": "address",
          "name": "",
          "type": "address"
        }
      ],
      "stateMutability": "view",
      "type": "function"
    },
    {
      "inputs": [],
      "name": "getListingPrice",
      "outputs": [
        {
          "internalType": "uint256",
          "name": "",
          "type": "uint256"
        }
      ],
      "stateMutability": "view",
      "type": "function"
    },
    {
      "inputs": [
        {
          "internalType": "address",
          "name": "owner",
          "type": "address"
        },
        {
          "internalType": "address",
          "name": "operator",
          "type": "address"
        }
      ],
      "name": "isApprovedForAll",
      "outputs": [
        {
          "internalType": "bool",
          "name": "",
          "type": "bool"
        }
      ],
      "stateMutability": "view",
      "type": "function"
    },
    {
      "inputs": [],
      "name": "name",
      "outputs": [
        {
          "internalType": "string",
          "name": "",
          "type": "string"
        }
      ],
      "stateMutability": "view",
      "type": "function"
    },
    {
      "inputs": [
        {
          "internalType": "uint256",
          "name": "tokenId",
          "type": "uint256"
        }
      ],
      "name": "ownerOf",
      "outputs": [
        {
          "internalType": "address",
          "name": "",
          "type": "address"
        }
      ],
      "stateMutability": "view",
      "type": "function"
    },
    {
      "inputs": [
        {
          "internalType": "address",
          "name": "from",
          "type": "address"
        },
        {
          "internalType": "address",
          "name": "to",
          "type": "address"
        },
        {
          "internalType": "uint256",
          "name": "tokenId",
          "type": "uint256"
        }
      ],
      "name": "safeTransferFrom",
      "outputs": [],
      "stateMutability": "nonpayable",
      "type": "function"
    },
    {
      "inputs": [
        {
          "internalType": "address",
          "name": "from",
          "type": "address"
        },
        {
          "internalType": "address",
          "name": "to",
          "type": "address"
        },
        {
          "internalType": "uint256",
          "name": "tokenId",
          "type": "uint256"
        },
        {
          "internalType": "bytes",
          "name": "data",
          "type": "bytes"
        }
      ],
      "name": "safeTransferFrom",
      "outputs": [],
      "stateMutability": "nonpayable",
      "type": "function"
    },
    {
      "inputs": [
        {
          "internalType": "address",
          "name": "operator",
          "type": "address"
        },
        {
          "internalType": "bool",
          "name": "approved",
          "type": "bool"
        }
      ],
      "name": "setApprovalForAll",
      "outputs": [],
      "stateMutability": "nonpayable",
      "type": "function"
    },
    {
      "inputs": [
        {
          "internalType": "bytes4",
          "name": "interfaceId",
          "type": "bytes4"
        }
      ],
      "name": "supportsInterface",
      "outputs": [
        {
          "internalType": "bool",
          "name": "",
          "type": "bool"
        }
      ],
      "stateMutability": "view",
      "type": "function"
    },
    {
      "inputs": [],
      "name": "symbol",
      "outputs": [
        {
          "internalType": "string",
          "name": "",
          "type": "string"
        }
      ],
      "stateMutability": "view",
      "type": "function"
    },
    {
      "inputs": [
        {
          "internalType": "uint256",
          "name": "tokenId",
          "type": "uint256"
        }
      ],
      "name": "tokenURI",
      "outputs": [
        {
          "internalType": "string",
          "name": "",
          "type": "string"
        }
      ],
      "stateMutability": "view",
      "type": "function"
    },
    {
      "inputs": [
        {
          "internalType": "address",
          "name": "from",
          "type": "address"
        },
        {
          "internalType": "address",
          "name": "to",
          "type": "address"
        },
        {
          "internalType": "uint256",
          "name": "tokenId",
          "type": "uint256"
        }
      ],
      "name": "transferFrom",
      "outputs": [],
      "stateMutability": "nonpayable",
      "type": "function"
    },
    {
      "inputs": [
        {
          "internalType": "uint256",
          "name": "_listingPrice",
          "type": "uint256"
        }
      ],
      "name": "updateListingPrice",
      "outputs": [],
      "stateMutability": "payable",
      "type": "function"
    },
    {
      "inputs": [
        {
          "internalType": "uint256",
          "name": "value",
          "type": "uint256"
        }
      ],
      "name": "withdraw",
      "outputs": [],
      "stateMutability": "nonpayable",
      "type": "function"
    },
    {
      "stateMutability": "payable",
      "type": "receive"
    }
  ],
  "bytecode": "0x608060405265b5e620f480006008553480156200001b57600080fd5b506040518060400160405280600c81526020017f4d696e74657220456779707400000000000000000000000000000000000000008152506040518060400160405280600581526020017f4d696e744500000000000000000000000000000000000000000000000000000081525081600090816200009991906200036f565b508060019081620000ab91906200036f565b50505033600960006101000a81548173ffffffffffffffffffffffffffffffffffffffff021916908373ffffffffffffffffffffffffffffffffffffffff16021790555062000456565b600081519050919050565b7f4e487b7100000000000000000000000000000000000000000000000000000000600052604160045260246000fd5b7f4e487b7100000000000000000000000000000000000000000000000000000000600052602260045260246000fd5b600060028204905060018216806200017757607f821691505b6020821081036200018d576200018c6200012f565b5b50919050565b60008190508160005260206000209050919050565b60006020601f8301049050919050565b600082821b905092915050565b600060088302620001f77fffffffffffffffffffffffffffffffffffffffffffffffffffffffffffffffff82620001b8565b620002038683620001b8565b95508019841693508086168417925050509392505050565b6000819050919050565b6000819050919050565b6000620002506200024a62000244846200021b565b62000225565b6200021b565b9050919050565b6000819050919050565b6200026c836200022f565b620002846200027b8262000257565b848454620001c5565b825550505050565b600090565b6200029b6200028c565b620002a881848462000261565b505050565b5b81811015620002d057620002c460008262000291565b600181019050620002ae565b5050565b601f8211156200031f57620002e98162000193565b620002f484620001a8565b8101602085101562000304578190505b6200031c6200031385620001a8565b830182620002ad565b50505b505050565b600082821c905092915050565b6000620003446000198460080262000324565b1980831691505092915050565b60006200035f838362000331565b9150826002028217905092915050565b6200037a82620000f5565b67ffffffffffffffff81111562000396576200039562000100565b5b620003a282546200015e565b620003af828285620002d4565b600060209050601f831160018114620003e75760008415620003d2578287015190505b620003de858262000351565b8655506200044e565b601f198416620003f78662000193565b60005b828110156200042157848901518255600182019150602085019450602081019050620003fa565b868310156200044157848901516200043d601f89168262000331565b8355505b6001600288020188555050505b505050505050565b61323580620004666000396000f3fe60806040526004361061010d5760003560e01c80636352211e11610095578063aa46a40011610064578063aa46a400146103f6578063ae677aa314610421578063b88d4fde1461043d578063c87b56dd14610466578063e985e9c5146104a35761014b565b80636352211e1461032857806370a082311461036557806395d89b41146103a2578063a22cb465146103cd5761014b565b806312e85585116100dc57806312e855851461025257806323b872dd1461027d5780632e1a7d4d146102a657806342842e0e146102cf5780634dfdc4fb146102f85761014b565b806301ffc9a71461018457806306fdde03146101c1578063081812fc146101ec578063095ea7b3146102295761014b565b3661014b577feac3bc00eb8bc276e61d902ebf696db93b7ee1cf44f1b16d6da1111427825e9e346040516101419190611e36565b60405180910390a1005b7feac3bc00eb8bc276e61d902ebf696db93b7ee1cf44f1b16d6da1111427825e9e3460405161017a9190611e36565b60405180910390a1005b34801561019057600080fd5b506101ab60048036038101906101a69190611ebd565b6104e0565b6040516101b89190611f05565b60405180910390f35b3480156101cd57600080fd5b506101d6610541565b6040516101e39190611fb0565b60405180910390f35b3480156101f857600080fd5b50610213600480360381019061020e9190611ffe565b6105d3565b604051610220919061206c565b60405180910390f35b34801561023557600080fd5b50610250600480360381019061024b91906120b3565b610619565b005b34801561025e57600080fd5b50610267610730565b6040516102749190611e36565b60405180910390f35b34801561028957600080fd5b506102a4600480360381019061029f91906120f3565b61073a565b005b3480156102b257600080fd5b506102cd60048036038101906102c89190611ffe565b61079a565b005b3480156102db57600080fd5b506102f660048036038101906102f191906120f3565b61093f565b005b610312600480360381019061030d919061227b565b61095f565b60405161031f9190611e36565b60405180910390f35b34801561033457600080fd5b5061034f600480360381019061034a9190611ffe565b610a23565b60405161035c919061206c565b60405180910390f35b34801561037157600080fd5b5061038c600480360381019061038791906122c4565b610aa9565b6040516103999190611e36565b60405180910390f35b3480156103ae57600080fd5b506103b7610b60565b6040516103c49190611fb0565b60405180910390f35b3480156103d957600080fd5b506103f460048036038101906103ef919061231d565b610bf2565b005b34801561040257600080fd5b5061040b610c08565b6040516104189190611e36565b60405180910390f35b61043b60048036038101906104369190611ffe565b610c14565b005b34801561044957600080fd5b50610464600480360381019061045f91906123fe565b610cae565b005b34801561047257600080fd5b5061048d60048036038101906104889190611ffe565b610d10565b60405161049a9190611fb0565b60405180910390f35b3480156104af57600080fd5b506104ca60048036038101906104c59190612481565b610e22565b6040516104d79190611f05565b60405180910390f35b6000634906490660e01b7bffffffffffffffffffffffffffffffffffffffffffffffffffffffff1916827bffffffffffffffffffffffffffffffffffffffffffffffffffffffff1916148061053a575061053982610eb6565b5b9050919050565b606060008054610550906124f0565b80601f016020809104026020016040519081016040528092919081815260200182805461057c906124f0565b80156105c95780601f1061059e576101008083540402835291602001916105c9565b820191906000526020600020905b8154815290600101906020018083116105ac57829003601f168201915b5050505050905090565b60006105de82610f98565b6004600083815260200190815260200160002060009054906101000a900473ffffffffffffffffffffffffffffffffffffffff169050919050565b600061062482610a23565b90508073ffffffffffffffffffffffffffffffffffffffff168373ffffffffffffffffffffffffffffffffffffffff1603610694576040517f08c379a000000000000000000000000000000000000000000000000000000000815260040161068b90612593565b60405180910390fd5b8073ffffffffffffffffffffffffffffffffffffffff166106b3610fe3565b73ffffffffffffffffffffffffffffffffffffffff1614806106e257506106e1816106dc610fe3565b610e22565b5b610721576040517f08c379a000000000000000000000000000000000000000000000000000000000815260040161071890612625565b60405180910390fd5b61072b8383610feb565b505050565b6000600854905090565b61074b610745610fe3565b826110a4565b61078a576040517f08c379a0000000000000000000000000000000000000000000000000000000008152600401610781906126b7565b60405180910390fd5b610795838383611139565b505050565b600960009054906101000a900473ffffffffffffffffffffffffffffffffffffffff1673ffffffffffffffffffffffffffffffffffffffff163373ffffffffffffffffffffffffffffffffffffffff161461082a576040517f08c379a000000000000000000000000000000000000000000000000000000000815260040161082190612723565b60405180910390fd5b4781111561086d576040517f08c379a00000000000000000000000000000000000000000000000000000000081526004016108649061278f565b60405180910390fd5b6000600960009054906101000a900473ffffffffffffffffffffffffffffffffffffffff1673ffffffffffffffffffffffffffffffffffffffff16826040516108b5906127e0565b60006040518083038185875af1925050503d80600081146108f2576040519150601f19603f3d011682016040523d82523d6000602084013e6108f7565b606091505b505090508061093b576040517f08c379a000000000000000000000000000000000000000000000000000000000815260040161093290612841565b60405180910390fd5b5050565b61095a83838360405180602001604052806000815250610cae565b505050565b600060085434146109a5576040517f08c379a000000000000000000000000000000000000000000000000000000000815260040161099c906128d3565b60405180910390fd5b6109af6007611432565b60006109bb6007611448565b90503073ffffffffffffffffffffffffffffffffffffffff166108fc6008549081150290604051600060405180830381858888f19350505050158015610a05573d6000803e3d6000fd5b50610a103382611456565b610a1a8184611673565b80915050919050565b600080610a2f83611717565b9050600073ffffffffffffffffffffffffffffffffffffffff168173ffffffffffffffffffffffffffffffffffffffff1603610aa0576040517f08c379a0000000000000000000000000000000000000000000000000000000008152600401610a979061293f565b60405180910390fd5b80915050919050565b60008073ffffffffffffffffffffffffffffffffffffffff168273ffffffffffffffffffffffffffffffffffffffff1603610b19576040517f08c379a0000000000000000000000000000000000000000000000000000000008152600401610b10906129d1565b60405180910390fd5b600360008373ffffffffffffffffffffffffffffffffffffffff1673ffffffffffffffffffffffffffffffffffffffff168152602001908152602001600020549050919050565b606060018054610b6f906124f0565b80601f0160208091040260200160405190810160405280929190818152602001828054610b9b906124f0565b8015610be85780601f10610bbd57610100808354040283529160200191610be8565b820191906000526020600020905b815481529060010190602001808311610bcb57829003601f168201915b5050505050905090565b610c04610bfd610fe3565b8383611754565b5050565b60078060000154905081565b3373ffffffffffffffffffffffffffffffffffffffff16600960009054906101000a900473ffffffffffffffffffffffffffffffffffffffff1673ffffffffffffffffffffffffffffffffffffffff1614610ca4576040517f08c379a0000000000000000000000000000000000000000000000000000000008152600401610c9b90612a63565b60405180910390fd5b8060088190555050565b610cbf610cb9610fe3565b836110a4565b610cfe576040517f08c379a0000000000000000000000000000000000000000000000000000000008152600401610cf5906126b7565b60405180910390fd5b610d0a848484846118c0565b50505050565b6060610d1b82610f98565b6000600660008481526020019081526020016000208054610d3b906124f0565b80601f0160208091040260200160405190810160405280929190818152602001828054610d67906124f0565b8015610db45780601f10610d8957610100808354040283529160200191610db4565b820191906000526020600020905b815481529060010190602001808311610d9757829003601f168201915b505050505090506000610dc561191c565b90506000815103610dda578192505050610e1d565b600082511115610e0f578082604051602001610df7929190612abf565b60405160208183030381529060405292505050610e1d565b610e1884611933565b925050505b919050565b6000600560008473ffffffffffffffffffffffffffffffffffffffff1673ffffffffffffffffffffffffffffffffffffffff16815260200190815260200160002060008373ffffffffffffffffffffffffffffffffffffffff1673ffffffffffffffffffffffffffffffffffffffff16815260200190815260200160002060009054906101000a900460ff16905092915050565b60007f80ac58cd000000000000000000000000000000000000000000000000000000007bffffffffffffffffffffffffffffffffffffffffffffffffffffffff1916827bffffffffffffffffffffffffffffffffffffffffffffffffffffffff19161480610f8157507f5b5e139f000000000000000000000000000000000000000000000000000000007bffffffffffffffffffffffffffffffffffffffffffffffffffffffff1916827bffffffffffffffffffffffffffffffffffffffffffffffffffffffff1916145b80610f915750610f908261199b565b5b9050919050565b610fa181611a05565b610fe0576040517f08c379a0000000000000000000000000000000000000000000000000000000008152600401610fd79061293f565b60405180910390fd5b50565b600033905090565b816004600083815260200190815260200160002060006101000a81548173ffffffffffffffffffffffffffffffffffffffff021916908373ffffffffffffffffffffffffffffffffffffffff160217905550808273ffffffffffffffffffffffffffffffffffffffff1661105e83610a23565b73ffffffffffffffffffffffffffffffffffffffff167f8c5be1e5ebec7d5bd14f71427d1e84f3dd0314c0f7b2291e5b200ac8c7c3b92560405160405180910390a45050565b6000806110b083610a23565b90508073ffffffffffffffffffffffffffffffffffffffff168473ffffffffffffffffffffffffffffffffffffffff1614806110f257506110f18185610e22565b5b8061113057508373ffffffffffffffffffffffffffffffffffffffff16611118846105d3565b73ffffffffffffffffffffffffffffffffffffffff16145b91505092915050565b8273ffffffffffffffffffffffffffffffffffffffff1661115982610a23565b73ffffffffffffffffffffffffffffffffffffffff16146111af576040517f08c379a00000000000000000000000000000000000000000000000000000000081526004016111a690612b55565b60405180910390fd5b600073ffffffffffffffffffffffffffffffffffffffff168273ffffffffffffffffffffffffffffffffffffffff160361121e576040517f08c379a000000000000000000000000000000000000000000000000000000000815260040161121590612be7565b60405180910390fd5b61122b8383836001611a46565b8273ffffffffffffffffffffffffffffffffffffffff1661124b82610a23565b73ffffffffffffffffffffffffffffffffffffffff16146112a1576040517f08c379a000000000000000000000000000000000000000000000000000000000815260040161129890612b55565b60405180910390fd5b6004600082815260200190815260200160002060006101000a81549073ffffffffffffffffffffffffffffffffffffffff02191690556001600360008573ffffffffffffffffffffffffffffffffffffffff1673ffffffffffffffffffffffffffffffffffffffff168152602001908152602001600020600082825403925050819055506001600360008473ffffffffffffffffffffffffffffffffffffffff1673ffffffffffffffffffffffffffffffffffffffff16815260200190815260200160002060008282540192505081905550816002600083815260200190815260200160002060006101000a81548173ffffffffffffffffffffffffffffffffffffffff021916908373ffffffffffffffffffffffffffffffffffffffff160217905550808273ffffffffffffffffffffffffffffffffffffffff168473ffffffffffffffffffffffffffffffffffffffff167fddf252ad1be2c89b69c2b068fc378daa952ba7f163c4a11628f55a4df523b3ef60405160405180910390a461142d8383836001611a4c565b505050565b6001816000016000828254019250508190555050565b600081600001549050919050565b600073ffffffffffffffffffffffffffffffffffffffff168273ffffffffffffffffffffffffffffffffffffffff16036114c5576040517f08c379a00000000000000000000000000000000000000000000000000000000081526004016114bc90612c53565b60405180910390fd5b6114ce81611a05565b1561150e576040517f08c379a000000000000000000000000000000000000000000000000000000000815260040161150590612cbf565b60405180910390fd5b61151c600083836001611a46565b61152581611a05565b15611565576040517f08c379a000000000000000000000000000000000000000000000000000000000815260040161155c90612cbf565b60405180910390fd5b6001600360008473ffffffffffffffffffffffffffffffffffffffff1673ffffffffffffffffffffffffffffffffffffffff16815260200190815260200160002060008282540192505081905550816002600083815260200190815260200160002060006101000a81548173ffffffffffffffffffffffffffffffffffffffff021916908373ffffffffffffffffffffffffffffffffffffffff160217905550808273ffffffffffffffffffffffffffffffffffffffff16600073ffffffffffffffffffffffffffffffffffffffff167fddf252ad1be2c89b69c2b068fc378daa952ba7f163c4a11628f55a4df523b3ef60405160405180910390a461166f600083836001611a4c565b5050565b61167c82611a05565b6116bb576040517f08c379a00000000000000000000000000000000000000000000000000000000081526004016116b290612d51565b60405180910390fd5b806006600084815260200190815260200160002090816116db9190612f1d565b507ff8e1a15aba9398e019f0b49df1a4fde98ee17ae345cb5f6b5e2c27f5033e8ce78260405161170b9190611e36565b60405180910390a15050565b60006002600083815260200190815260200160002060009054906101000a900473ffffffffffffffffffffffffffffffffffffffff169050919050565b8173ffffffffffffffffffffffffffffffffffffffff168373ffffffffffffffffffffffffffffffffffffffff16036117c2576040517f08c379a00000000000000000000000000000000000000000000000000000000081526004016117b99061303b565b60405180910390fd5b80600560008573ffffffffffffffffffffffffffffffffffffffff1673ffffffffffffffffffffffffffffffffffffffff16815260200190815260200160002060008473ffffffffffffffffffffffffffffffffffffffff1673ffffffffffffffffffffffffffffffffffffffff16815260200190815260200160002060006101000a81548160ff0219169083151502179055508173ffffffffffffffffffffffffffffffffffffffff168373ffffffffffffffffffffffffffffffffffffffff167f17307eab39ab6107e8899845ad3d59bd9653f200f220920489ca2b5937696c31836040516118b39190611f05565b60405180910390a3505050565b6118cb848484611139565b6118d784848484611a52565b611916576040517f08c379a000000000000000000000000000000000000000000000000000000000815260040161190d906130cd565b60405180910390fd5b50505050565b606060405180602001604052806000815250905090565b606061193e82610f98565b600061194861191c565b905060008151116119685760405180602001604052806000815250611993565b8061197284611bd9565b604051602001611983929190612abf565b6040516020818303038152906040525b915050919050565b60007f01ffc9a7000000000000000000000000000000000000000000000000000000007bffffffffffffffffffffffffffffffffffffffffffffffffffffffff1916827bffffffffffffffffffffffffffffffffffffffffffffffffffffffff1916149050919050565b60008073ffffffffffffffffffffffffffffffffffffffff16611a2783611717565b73ffffffffffffffffffffffffffffffffffffffff1614159050919050565b50505050565b50505050565b6000611a738473ffffffffffffffffffffffffffffffffffffffff16611ca7565b15611bcc578373ffffffffffffffffffffffffffffffffffffffff1663150b7a02611a9c610fe3565b8786866040518563ffffffff1660e01b8152600401611abe9493929190613142565b6020604051808303816000875af1925050508015611afa57506040513d601f19601f82011682018060405250810190611af791906131a3565b60015b611b7c573d8060008114611b2a576040519150601f19603f3d011682016040523d82523d6000602084013e611b2f565b606091505b506000815103611b74576040517f08c379a0000000000000000000000000000000000000000000000000000000008152600401611b6b906130cd565b60405180910390fd5b805181602001fd5b63150b7a0260e01b7bffffffffffffffffffffffffffffffffffffffffffffffffffffffff1916817bffffffffffffffffffffffffffffffffffffffffffffffffffffffff191614915050611bd1565b600190505b949350505050565b606060006001611be884611cca565b01905060008167ffffffffffffffff811115611c0757611c06612150565b5b6040519080825280601f01601f191660200182016040528015611c395781602001600182028036833780820191505090505b509050600082602001820190505b600115611c9c578080600190039150507f3031323334353637383961626364656600000000000000000000000000000000600a86061a8153600a8581611c9057611c8f6131d0565b5b04945060008503611c47575b819350505050919050565b6000808273ffffffffffffffffffffffffffffffffffffffff163b119050919050565b600080600090507a184f03e93ff9f4daa797ed6e38ed64bf6a1f0100000000000000008310611d28577a184f03e93ff9f4daa797ed6e38ed64bf6a1f0100000000000000008381611d1e57611d1d6131d0565b5b0492506040810190505b6d04ee2d6d415b85acef81000000008310611d65576d04ee2d6d415b85acef81000000008381611d5b57611d5a6131d0565b5b0492506020810190505b662386f26fc100008310611d9457662386f26fc100008381611d8a57611d896131d0565b5b0492506010810190505b6305f5e1008310611dbd576305f5e1008381611db357611db26131d0565b5b0492506008810190505b6127108310611de2576127108381611dd857611dd76131d0565b5b0492506004810190505b60648310611e055760648381611dfb57611dfa6131d0565b5b0492506002810190505b600a8310611e14576001810190505b80915050919050565b6000819050919050565b611e3081611e1d565b82525050565b6000602082019050611e4b6000830184611e27565b92915050565b6000604051905090565b600080fd5b600080fd5b60007fffffffff0000000000000000000000000000000000000000000000000000000082169050919050565b611e9a81611e65565b8114611ea557600080fd5b50565b600081359050611eb781611e91565b92915050565b600060208284031215611ed357611ed2611e5b565b5b6000611ee184828501611ea8565b91505092915050565b60008115159050919050565b611eff81611eea565b82525050565b6000602082019050611f1a6000830184611ef6565b92915050565b600081519050919050565b600082825260208201905092915050565b60005b83811015611f5a578082015181840152602081019050611f3f565b60008484015250505050565b6000601f19601f8301169050919050565b6000611f8282611f20565b611f8c8185611f2b565b9350611f9c818560208601611f3c565b611fa581611f66565b840191505092915050565b60006020820190508181036000830152611fca8184611f77565b905092915050565b611fdb81611e1d565b8114611fe657600080fd5b50565b600081359050611ff881611fd2565b92915050565b60006020828403121561201457612013611e5b565b5b600061202284828501611fe9565b91505092915050565b600073ffffffffffffffffffffffffffffffffffffffff82169050919050565b60006120568261202b565b9050919050565b6120668161204b565b82525050565b6000602082019050612081600083018461205d565b92915050565b6120908161204b565b811461209b57600080fd5b50565b6000813590506120ad81612087565b92915050565b600080604083850312156120ca576120c9611e5b565b5b60006120d88582860161209e565b92505060206120e985828601611fe9565b9150509250929050565b60008060006060848603121561210c5761210b611e5b565b5b600061211a8682870161209e565b935050602061212b8682870161209e565b925050604061213c86828701611fe9565b9150509250925092565b600080fd5b600080fd5b7f4e487b7100000000000000000000000000000000000000000000000000000000600052604160045260246000fd5b61218882611f66565b810181811067ffffffffffffffff821117156121a7576121a6612150565b5b80604052505050565b60006121ba611e51565b90506121c6828261217f565b919050565b600067ffffffffffffffff8211156121e6576121e5612150565b5b6121ef82611f66565b9050602081019050919050565b82818337600083830152505050565b600061221e612219846121cb565b6121b0565b90508281526020810184848401111561223a5761223961214b565b5b6122458482856121fc565b509392505050565b600082601f83011261226257612261612146565b5b813561227284826020860161220b565b91505092915050565b60006020828403121561229157612290611e5b565b5b600082013567ffffffffffffffff8111156122af576122ae611e60565b5b6122bb8482850161224d565b91505092915050565b6000602082840312156122da576122d9611e5b565b5b60006122e88482850161209e565b91505092915050565b6122fa81611eea565b811461230557600080fd5b50565b600081359050612317816122f1565b92915050565b6000806040838503121561233457612333611e5b565b5b60006123428582860161209e565b925050602061235385828601612308565b9150509250929050565b600067ffffffffffffffff82111561237857612377612150565b5b61238182611f66565b9050602081019050919050565b60006123a161239c8461235d565b6121b0565b9050828152602081018484840111156123bd576123bc61214b565b5b6123c88482856121fc565b509392505050565b600082601f8301126123e5576123e4612146565b5b81356123f584826020860161238e565b91505092915050565b6000806000806080858703121561241857612417611e5b565b5b60006124268782880161209e565b94505060206124378782880161209e565b935050604061244887828801611fe9565b925050606085013567ffffffffffffffff81111561246957612468611e60565b5b612475878288016123d0565b91505092959194509250565b6000806040838503121561249857612497611e5b565b5b60006124a68582860161209e565b92505060206124b78582860161209e565b9150509250929050565b7f4e487b7100000000000000000000000000000000000000000000000000000000600052602260045260246000fd5b6000600282049050600182168061250857607f821691505b60208210810361251b5761251a6124c1565b5b50919050565b7f4552433732313a20617070726f76616c20746f2063757272656e74206f776e6560008201527f7200000000000000000000000000000000000000000000000000000000000000602082015250565b600061257d602183611f2b565b915061258882612521565b604082019050919050565b600060208201905081810360008301526125ac81612570565b9050919050565b7f4552433732313a20617070726f76652063616c6c6572206973206e6f7420746f60008201527f6b656e206f776e6572206f7220617070726f76656420666f7220616c6c000000602082015250565b600061260f603d83611f2b565b915061261a826125b3565b604082019050919050565b6000602082019050818103600083015261263e81612602565b9050919050565b7f4552433732313a2063616c6c6572206973206e6f7420746f6b656e206f776e6560008201527f72206f7220617070726f76656400000000000000000000000000000000000000602082015250565b60006126a1602d83611f2b565b91506126ac82612645565b604082019050919050565b600060208201905081810360008301526126d081612694565b9050919050565b7f41646472657373206973206e6f7420746865206f776e65720000000000000000600082015250565b600061270d601883611f2b565b9150612718826126d7565b602082019050919050565b6000602082019050818103600083015261273c81612700565b9050919050565b7f56616c756520686967686572207468616e2062616c616e63652e000000000000600082015250565b6000612779601a83611f2b565b915061278482612743565b602082019050919050565b600060208201905081810360008301526127a88161276c565b9050919050565b600081905092915050565b50565b60006127ca6000836127af565b91506127d5826127ba565b600082019050919050565b60006127eb826127bd565b9150819050919050565b7f54686572652077617320616e206572726f722100000000000000000000000000600082015250565b600061282b601383611f2b565b9150612836826127f5565b602082019050919050565b6000602082019050818103600083015261285a8161281e565b9050919050565b7f5072696365206d75737420626520657175616c20746f206c697374696e67207060008201527f7269636500000000000000000000000000000000000000000000000000000000602082015250565b60006128bd602483611f2b565b91506128c882612861565b604082019050919050565b600060208201905081810360008301526128ec816128b0565b9050919050565b7f4552433732313a20696e76616c696420746f6b656e2049440000000000000000600082015250565b6000612929601883611f2b565b9150612934826128f3565b602082019050919050565b600060208201905081810360008301526129588161291c565b9050919050565b7f4552433732313a2061646472657373207a65726f206973206e6f74206120766160008201527f6c6964206f776e65720000000000000000000000000000000000000000000000602082015250565b60006129bb602983611f2b565b91506129c68261295f565b604082019050919050565b600060208201905081810360008301526129ea816129ae565b9050919050565b7f4f6e6c79206d61726b6574706c616365206f776e65722063616e20757064617460008201527f65206c697374696e672070726963652e00000000000000000000000000000000602082015250565b6000612a4d603083611f2b565b9150612a58826129f1565b604082019050919050565b60006020820190508181036000830152612a7c81612a40565b9050919050565b600081905092915050565b6000612a9982611f20565b612aa38185612a83565b9350612ab3818560208601611f3c565b80840191505092915050565b6000612acb8285612a8e565b9150612ad78284612a8e565b91508190509392505050565b7f4552433732313a207472616e736665722066726f6d20696e636f72726563742060008201527f6f776e6572000000000000000000000000000000000000000000000000000000602082015250565b6000612b3f602583611f2b565b9150612b4a82612ae3565b604082019050919050565b60006020820190508181036000830152612b6e81612b32565b9050919050565b7f4552433732313a207472616e7366657220746f20746865207a65726f2061646460008201527f7265737300000000000000000000000000000000000000000000000000000000602082015250565b6000612bd1602483611f2b565b9150612bdc82612b75565b604082019050919050565b60006020820190508181036000830152612c0081612bc4565b9050919050565b7f4552433732313a206d696e7420746f20746865207a65726f2061646472657373600082015250565b6000612c3d602083611f2b565b9150612c4882612c07565b602082019050919050565b60006020820190508181036000830152612c6c81612c30565b9050919050565b7f4552433732313a20746f6b656e20616c7265616479206d696e74656400000000600082015250565b6000612ca9601c83611f2b565b9150612cb482612c73565b602082019050919050565b60006020820190508181036000830152612cd881612c9c565b9050919050565b7f45524337323155524953746f726167653a2055524920736574206f66206e6f6e60008201527f6578697374656e7420746f6b656e000000000000000000000000000000000000602082015250565b6000612d3b602e83611f2b565b9150612d4682612cdf565b604082019050919050565b60006020820190508181036000830152612d6a81612d2e565b9050919050565b60008190508160005260206000209050919050565b60006020601f8301049050919050565b600082821b905092915050565b600060088302612dd37fffffffffffffffffffffffffffffffffffffffffffffffffffffffffffffffff82612d96565b612ddd8683612d96565b95508019841693508086168417925050509392505050565b6000819050919050565b6000612e1a612e15612e1084611e1d565b612df5565b611e1d565b9050919050565b6000819050919050565b612e3483612dff565b612e48612e4082612e21565b848454612da3565b825550505050565b600090565b612e5d612e50565b612e68818484612e2b565b505050565b5b81811015612e8c57612e81600082612e55565b600181019050612e6e565b5050565b601f821115612ed157612ea281612d71565b612eab84612d86565b81016020851015612eba578190505b612ece612ec685612d86565b830182612e6d565b50505b505050565b600082821c905092915050565b6000612ef460001984600802612ed6565b1980831691505092915050565b6000612f0d8383612ee3565b9150826002028217905092915050565b612f2682611f20565b67ffffffffffffffff811115612f3f57612f3e612150565b5b612f4982546124f0565b612f54828285612e90565b600060209050601f831160018114612f875760008415612f75578287015190505b612f7f8582612f01565b865550612fe7565b601f198416612f9586612d71565b60005b82811015612fbd57848901518255600182019150602085019450602081019050612f98565b86831015612fda5784890151612fd6601f891682612ee3565b8355505b6001600288020188555050505b505050505050565b7f4552433732313a20617070726f766520746f2063616c6c657200000000000000600082015250565b6000613025601983611f2b565b915061303082612fef565b602082019050919050565b6000602082019050818103600083015261305481613018565b9050919050565b7f4552433732313a207472616e7366657220746f206e6f6e20455243373231526560008201527f63656976657220696d706c656d656e7465720000000000000000000000000000602082015250565b60006130b7603283611f2b565b91506130c28261305b565b604082019050919050565b600060208201905081810360008301526130e6816130aa565b9050919050565b600081519050919050565b600082825260208201905092915050565b6000613114826130ed565b61311e81856130f8565b935061312e818560208601611f3c565b61313781611f66565b840191505092915050565b6000608082019050613157600083018761205d565b613164602083018661205d565b6131716040830185611e27565b81810360608301526131838184613109565b905095945050505050565b60008151905061319d81611e91565b92915050565b6000602082840312156131b9576131b8611e5b565b5b60006131c78482850161318e565b91505092915050565b7f4e487b7100000000000000000000000000000000000000000000000000000000600052601260045260246000fdfea2646970667358221220ea47400d87ea8d75e2b32aa2bc857d3dcc4f13ec29dfe992620e3422fcde6fe364736f6c63430008110033",
  "linkReferences": {},
  "deployedLinkReferences": {}
}