{
  "_format": "hh-sol-artifact-1",
  "contractName": "Badagry",
  "sourceName": "contracts/Badgry.sol",
  "abi": [
    {
      "inputs": [],
      "stateMutability": "nonpayable",
      "type": "constructor"
    },
    {
      "anonymous": false,
      "inputs": [
        {
          "indexed": true,
          "internalType": "address",
          "name": "owner",
          "type": "address"
        },
        {
          "indexed": true,
          "internalType": "address",
          "name": "approved",
          "type": "address"
        },
        {
          "indexed": true,
          "internalType": "uint256",
          "name": "tokenId",
          "type": "uint256"
        }
      ],
      "name": "Approval",
      "type": "event"
    },
    {
      "anonymous": false,
      "inputs": [
        {
          "indexed": true,
          "internalType": "address",
          "name": "owner",
          "type": "address"
        },
        {
          "indexed": true,
          "internalType": "address",
          "name": "operator",
          "type": "address"
        },
        {
          "indexed": false,
          "internalType": "bool",
          "name": "approved",
          "type": "bool"
        }
      ],
      "name": "ApprovalForAll",
      "type": "event"
    },
    {
      "anonymous": false,
      "inputs": [
        {
          "indexed": false,
          "internalType": "uint256",
          "name": "_fromTokenId",
          "type": "uint256"
        },
        {
          "indexed": false,
          "internalType": "uint256",
          "name": "_toTokenId",
          "type": "uint256"
        }
      ],
      "name": "BatchMetadataUpdate",
      "type": "event"
    },
    {
      "anonymous": false,
      "inputs": [
        {
          "indexed": false,
          "internalType": "uint256",
          "name": "_tokenId",
          "type": "uint256"
        }
      ],
      "name": "MetadataUpdate",
      "type": "event"
    },
    {
      "anonymous": false,
      "inputs": [
        {
          "indexed": false,
          "internalType": "address",
          "name": "account",
          "type": "address"
        }
      ],
      "name": "MonthlyPaymentMade",
      "type": "event"
    },
    {
      "anonymous": false,
      "inputs": [
        {
          "indexed": true,
          "internalType": "uint256",
          "name": "tokenId",
          "type": "uint256"
        },
        {
          "indexed": false,
          "internalType": "address",
          "name": "owner",
          "type": "address"
        },
        {
          "indexed": false,
          "internalType": "address",
          "name": "storageDrive",
          "type": "address"
        },
        {
          "indexed": false,
          "internalType": "uint256",
          "name": "dateCreated",
          "type": "uint256"
        },
        {
          "indexed": false,
          "internalType": "bool",
          "name": "shared",
          "type": "bool"
        }
      ],
      "name": "StorageItemCreated",
      "type": "event"
    },
    {
      "anonymous": false,
      "inputs": [
        {
          "indexed": false,
          "internalType": "address",
          "name": "account",
          "type": "address"
        }
      ],
      "name": "SubscriptionMade",
      "type": "event"
    },
    {
      "anonymous": false,
      "inputs": [
        {
          "indexed": true,
          "internalType": "address",
          "name": "from",
          "type": "address"
        },
        {
          "indexed": true,
          "internalType": "address",
          "name": "to",
          "type": "address"
        },
        {
          "indexed": true,
          "internalType": "uint256",
          "name": "tokenId",
          "type": "uint256"
        }
      ],
      "name": "Transfer",
      "type": "event"
    },
    {
      "anonymous": false,
      "inputs": [
        {
          "indexed": true,
          "internalType": "uint256",
          "name": "vId",
          "type": "uint256"
        },
        {
          "indexed": false,
          "internalType": "uint256",
          "name": "tokenId",
          "type": "uint256"
        },
        {
          "indexed": false,
          "internalType": "address",
          "name": "visitor",
          "type": "address"
        }
      ],
      "name": "ViewItemCreated",
      "type": "event"
    },
    {
      "inputs": [],
      "name": "_tokenIds",
      "outputs": [
        {
          "internalType": "uint256",
          "name": "_value",
          "type": "uint256"
        }
      ],
      "stateMutability": "view",
      "type": "function"
    },
    {
      "inputs": [],
      "name": "_viewIds",
      "outputs": [
        {
          "internalType": "uint256",
          "name": "_value",
          "type": "uint256"
        }
      ],
      "stateMutability": "view",
      "type": "function"
    },
    {
      "inputs": [
        {
          "internalType": "address",
          "name": "to",
          "type": "address"
        },
        {
          "internalType": "uint256",
          "name": "tokenId",
          "type": "uint256"
        }
      ],
      "name": "approve",
      "outputs": [],
      "stateMutability": "nonpayable",
      "type": "function"
    },
    {
      "inputs": [
        {
          "internalType": "address",
          "name": "owner",
          "type": "address"
        }
      ],
      "name": "balanceOf",
      "outputs": [
        {
          "internalType": "uint256",
          "name": "",
          "type": "uint256"
        }
      ],
      "stateMutability": "view",
      "type": "function"
    },
    {
      "inputs": [
        {
          "internalType": "string",
          "name": "tokenURI",
          "type": "string"
        }
      ],
      "name": "createFile",
      "outputs": [
        {
          "internalType": "uint256",
          "name": "",
          "type": "uint256"
        }
      ],
      "stateMutability": "payable",
      "type": "function"
    },
    {
      "inputs": [
        {
          "internalType": "uint256",
          "name": "tokenId",
          "type": "uint256"
        }
      ],
      "name": "createViewItem",
      "outputs": [],
      "stateMutability": "nonpayable",
      "type": "function"
    },
    {
      "inputs": [],
      "name": "fetchAllStorageItems",
      "outputs": [
        {
          "components": [
            {
              "internalType": "uint256",
              "name": "tokenId",
              "type": "uint256"
            },
            {
              "internalType": "address",
              "name": "owner",
              "type": "address"
            },
            {
              "internalType": "address",
              "name": "storageDrive",
              "type": "address"
            },
            {
              "internalType": "uint256",
              "name": "dateCreated",
              "type": "uint256"
            },
            {
              "internalType": "bool",
              "name": "shared",
              "type": "bool"
            }
          ],
          "internalType": "struct Badagry.StorageItem[]",
          "name": "",
          "type": "tuple[]"
        }
      ],
      "stateMutability": "view",
      "type": "function"
    },
    {
      "inputs": [],
      "name": "fetchMyFiles",
      "outputs": [
        {
          "components": [
            {
              "internalType": "uint256",
              "name": "tokenId",
              "type": "uint256"
            },
            {
              "internalType": "address",
              "name": "owner",
              "type": "address"
            },
            {
              "internalType": "address",
              "name": "storageDrive",
              "type": "address"
            },
            {
              "internalType": "uint256",
              "name": "dateCreated",
              "type": "uint256"
            },
            {
              "internalType": "bool",
              "name": "shared",
              "type": "bool"
            }
          ],
          "internalType": "struct Badagry.StorageItem[]",
          "name": "",
          "type": "tuple[]"
        }
      ],
      "stateMutability": "view",
      "type": "function"
    },
    {
      "inputs": [
        {
          "internalType": "uint256",
          "name": "_tokenId",
          "type": "uint256"
        }
      ],
      "name": "fetchOneNews",
      "outputs": [
        {
          "components": [
            {
              "internalType": "uint256",
              "name": "tokenId",
              "type": "uint256"
            },
            {
              "internalType": "address",
              "name": "owner",
              "type": "address"
            },
            {
              "internalType": "address",
              "name": "storageDrive",
              "type": "address"
            },
            {
              "internalType": "uint256",
              "name": "dateCreated",
              "type": "uint256"
            },
            {
              "internalType": "bool",
              "name": "shared",
              "type": "bool"
            }
          ],
          "internalType": "struct Badagry.StorageItem[]",
          "name": "",
          "type": "tuple[]"
        }
      ],
      "stateMutability": "view",
      "type": "function"
    },
    {
      "inputs": [
        {
          "internalType": "uint256",
          "name": "_tokenId",
          "type": "uint256"
        }
      ],
      "name": "fetchViews",
      "outputs": [
        {
          "internalType": "uint256",
          "name": "",
          "type": "uint256"
        }
      ],
      "stateMutability": "view",
      "type": "function"
    },
    {
      "inputs": [
        {
          "internalType": "uint256",
          "name": "tokenId",
          "type": "uint256"
        }
      ],
      "name": "getApproved",
      "outputs": [
        {
          "internalType": "address",
          "name": "",
          "type": "address"
        }
      ],
      "stateMutability": "view",
      "type": "function"
    },
    {
      "inputs": [
        {
          "internalType": "address",
          "name": "owner",
          "type": "address"
        },
        {
          "internalType": "address",
          "name": "operator",
          "type": "address"
        }
      ],
      "name": "isApprovedForAll",
      "outputs": [
        {
          "internalType": "bool",
          "name": "",
          "type": "bool"
        }
      ],
      "stateMutability": "view",
      "type": "function"
    },
    {
      "inputs": [],
      "name": "name",
      "outputs": [
        {
          "internalType": "string",
          "name": "",
          "type": "string"
        }
      ],
      "stateMutability": "view",
      "type": "function"
    },
    {
      "inputs": [
        {
          "internalType": "uint256",
          "name": "tokenId",
          "type": "uint256"
        }
      ],
      "name": "ownerOf",
      "outputs": [
        {
          "internalType": "address",
          "name": "",
          "type": "address"
        }
      ],
      "stateMutability": "view",
      "type": "function"
    },
    {
      "inputs": [],
      "name": "payMonthlyValue",
      "outputs": [],
      "stateMutability": "payable",
      "type": "function"
    },
    {
      "inputs": [
        {
          "internalType": "address",
          "name": "from",
          "type": "address"
        },
        {
          "internalType": "address",
          "name": "to",
          "type": "address"
        },
        {
          "internalType": "uint256",
          "name": "tokenId",
          "type": "uint256"
        }
      ],
      "name": "safeTransferFrom",
      "outputs": [],
      "stateMutability": "nonpayable",
      "type": "function"
    },
    {
      "inputs": [
        {
          "internalType": "address",
          "name": "from",
          "type": "address"
        },
        {
          "internalType": "address",
          "name": "to",
          "type": "address"
        },
        {
          "internalType": "uint256",
          "name": "tokenId",
          "type": "uint256"
        },
        {
          "internalType": "bytes",
          "name": "data",
          "type": "bytes"
        }
      ],
      "name": "safeTransferFrom",
      "outputs": [],
      "stateMutability": "nonpayable",
      "type": "function"
    },
    {
      "inputs": [
        {
          "internalType": "address",
          "name": "operator",
          "type": "address"
        },
        {
          "internalType": "bool",
          "name": "approved",
          "type": "bool"
        }
      ],
      "name": "setApprovalForAll",
      "outputs": [],
      "stateMutability": "nonpayable",
      "type": "function"
    },
    {
      "inputs": [],
      "name": "subscribe",
      "outputs": [],
      "stateMutability": "payable",
      "type": "function"
    },
    {
      "inputs": [
        {
          "internalType": "bytes4",
          "name": "interfaceId",
          "type": "bytes4"
        }
      ],
      "name": "supportsInterface",
      "outputs": [
        {
          "internalType": "bool",
          "name": "",
          "type": "bool"
        }
      ],
      "stateMutability": "view",
      "type": "function"
    },
    {
      "inputs": [],
      "name": "symbol",
      "outputs": [
        {
          "internalType": "string",
          "name": "",
          "type": "string"
        }
      ],
      "stateMutability": "view",
      "type": "function"
    },
    {
      "inputs": [
        {
          "internalType": "uint256",
          "name": "tokenId",
          "type": "uint256"
        }
      ],
      "name": "tokenURI",
      "outputs": [
        {
          "internalType": "string",
          "name": "",
          "type": "string"
        }
      ],
      "stateMutability": "view",
      "type": "function"
    },
    {
      "inputs": [
        {
          "internalType": "address",
          "name": "from",
          "type": "address"
        },
        {
          "internalType": "address",
          "name": "to",
          "type": "address"
        },
        {
          "internalType": "uint256",
          "name": "tokenId",
          "type": "uint256"
        }
      ],
      "name": "transferFrom",
      "outputs": [],
      "stateMutability": "nonpayable",
      "type": "function"
    },
    {
      "inputs": [
        {
          "internalType": "uint256",
          "name": "value",
          "type": "uint256"
        }
      ],
      "name": "withdraw",
      "outputs": [],
      "stateMutability": "nonpayable",
      "type": "function"
    }
  ],
  "bytecode": "0x60806040523480156200001157600080fd5b506040518060400160405280600781526020017f42616461677279000000000000000000000000000000000000000000000000008152506040518060400160405280600581526020017f424144475900000000000000000000000000000000000000000000000000000081525081600090816200008f919062000365565b508060019081620000a1919062000365565b50505033600b60006101000a81548173ffffffffffffffffffffffffffffffffffffffff021916908373ffffffffffffffffffffffffffffffffffffffff1602179055506200044c565b600081519050919050565b7f4e487b7100000000000000000000000000000000000000000000000000000000600052604160045260246000fd5b7f4e487b7100000000000000000000000000000000000000000000000000000000600052602260045260246000fd5b600060028204905060018216806200016d57607f821691505b60208210810362000183576200018262000125565b5b50919050565b60008190508160005260206000209050919050565b60006020601f8301049050919050565b600082821b905092915050565b600060088302620001ed7fffffffffffffffffffffffffffffffffffffffffffffffffffffffffffffffff82620001ae565b620001f98683620001ae565b95508019841693508086168417925050509392505050565b6000819050919050565b6000819050919050565b600062000246620002406200023a8462000211565b6200021b565b62000211565b9050919050565b6000819050919050565b620002628362000225565b6200027a62000271826200024d565b848454620001bb565b825550505050565b600090565b6200029162000282565b6200029e81848462000257565b505050565b5b81811015620002c657620002ba60008262000287565b600181019050620002a4565b5050565b601f8211156200031557620002df8162000189565b620002ea846200019e565b81016020851015620002fa578190505b6200031262000309856200019e565b830182620002a3565b50505b505050565b600082821c905092915050565b60006200033a600019846008026200031a565b1980831691505092915050565b600062000355838362000327565b9150826002028217905092915050565b6200037082620000eb565b67ffffffffffffffff8111156200038c576200038b620000f6565b5b62000398825462000154565b620003a5828285620002ca565b600060209050601f831160018114620003dd5760008415620003c8578287015190505b620003d4858262000347565b86555062000444565b601f198416620003ed8662000189565b60005b828110156200041757848901518255600182019150602085019450602081019050620003f0565b8683101562000437578489015162000433601f89168262000327565b8355505b6001600288020188555050505b505050505050565b614194806200045c6000396000f3fe60806040526004361061014b5760003560e01c80636352211e116100b6578063aa46a4001161006f578063aa46a40014610467578063b0b4410614610492578063b88d4fde146104cf578063c87b56dd146104f8578063e985e9c514610535578063fef6b327146105725761014b565b80636352211e1461036457806370a08231146103a15780638f449a05146103de578063957b5ba3146103e857806395d89b4114610413578063a22cb4651461043e5761014b565b80632e1a7d4d116101085780632e1a7d4d14610284578063347cfeab146102ad57806337a89986146102b75780633c8f2823146102e257806342842e0e1461030b5780634dfdc4fb146103345761014b565b806301ffc9a71461015057806306fdde031461018d578063081812fc146101b8578063095ea7b3146101f557806323b872dd1461021e57806325609d9114610247575b600080fd5b34801561015c57600080fd5b5061017760048036038101906101729190612b1a565b61059d565b6040516101849190612b62565b60405180910390f35b34801561019957600080fd5b506101a26105fe565b6040516101af9190612c0d565b60405180910390f35b3480156101c457600080fd5b506101df60048036038101906101da9190612c65565b610690565b6040516101ec9190612cd3565b60405180910390f35b34801561020157600080fd5b5061021c60048036038101906102179190612d1a565b6106d6565b005b34801561022a57600080fd5b5061024560048036038101906102409190612d5a565b6107ed565b005b34801561025357600080fd5b5061026e60048036038101906102699190612c65565b61084d565b60405161027b9190612ef1565b60405180910390f35b34801561029057600080fd5b506102ab60048036038101906102a69190612c65565b610aa3565b005b6102b5610c48565b005b3480156102c357600080fd5b506102cc610d51565b6040516102d99190612ef1565b60405180910390f35b3480156102ee57600080fd5b5061030960048036038101906103049190612c65565b610f96565b005b34801561031757600080fd5b50610332600480360381019061032d9190612d5a565b61108e565b005b61034e60048036038101906103499190613048565b6110ae565b60405161035b91906130a0565b60405180910390f35b34801561037057600080fd5b5061038b60048036038101906103869190612c65565b6110ee565b6040516103989190612cd3565b60405180910390f35b3480156103ad57600080fd5b506103c860048036038101906103c391906130bb565b611174565b6040516103d591906130a0565b60405180910390f35b6103e661122b565b005b3480156103f457600080fd5b506103fd611349565b60405161040a9190612ef1565b60405180910390f35b34801561041f57600080fd5b50610428611635565b6040516104359190612c0d565b60405180910390f35b34801561044a57600080fd5b5061046560048036038101906104609190613114565b6116c7565b005b34801561047357600080fd5b5061047c6116dd565b60405161048991906130a0565b60405180910390f35b34801561049e57600080fd5b506104b960048036038101906104b49190612c65565b6116e9565b6040516104c691906130a0565b60405180910390f35b3480156104db57600080fd5b506104f660048036038101906104f191906131f5565b61175b565b005b34801561050457600080fd5b5061051f600480360381019061051a9190612c65565b6117bd565b60405161052c9190612c0d565b60405180910390f35b34801561054157600080fd5b5061055c60048036038101906105579190613278565b6118cf565b6040516105699190612b62565b60405180910390f35b34801561057e57600080fd5b50610587611963565b60405161059491906130a0565b60405180910390f35b6000634906490660e01b7bffffffffffffffffffffffffffffffffffffffffffffffffffffffff1916827bffffffffffffffffffffffffffffffffffffffffffffffffffffffff191614806105f757506105f68261196f565b5b9050919050565b60606000805461060d906132e7565b80601f0160208091040260200160405190810160405280929190818152602001828054610639906132e7565b80156106865780601f1061065b57610100808354040283529160200191610686565b820191906000526020600020905b81548152906001019060200180831161066957829003601f168201915b5050505050905090565b600061069b82611a51565b6004600083815260200190815260200160002060009054906101000a900473ffffffffffffffffffffffffffffffffffffffff169050919050565b60006106e1826110ee565b90508073ffffffffffffffffffffffffffffffffffffffff168373ffffffffffffffffffffffffffffffffffffffff1603610751576040517f08c379a00000000000000000000000000000000000000000000000000000000081526004016107489061338a565b60405180910390fd5b8073ffffffffffffffffffffffffffffffffffffffff16610770611a9c565b73ffffffffffffffffffffffffffffffffffffffff16148061079f575061079e81610799611a9c565b6118cf565b5b6107de576040517f08c379a00000000000000000000000000000000000000000000000000000000081526004016107d59061341c565b60405180910390fd5b6107e88383611aa4565b505050565b6107fe6107f8611a9c565b82611b5d565b61083d576040517f08c379a0000000000000000000000000000000000000000000000000000000008152600401610834906134ae565b60405180910390fd5b610848838383611bf2565b505050565b6060600061085b6007611eeb565b905060008060005b838110156108b75785600d600060018461087d91906134fd565b815260200190815260200160002060000154036108a4576001836108a191906134fd565b92505b80806108af90613531565b915050610863565b5060008267ffffffffffffffff8111156108d4576108d3612f1d565b5b60405190808252806020026020018201604052801561090d57816020015b6108fa612a51565b8152602001906001900390816108f25790505b50905060005b84811015610a965786600d600060018461092d91906134fd565b81526020019081526020016000206000015403610a8357600060018261095391906134fd565b90506000600d60008381526020019081526020016000209050806040518060a0016040529081600082015481526020016001820160009054906101000a900473ffffffffffffffffffffffffffffffffffffffff1673ffffffffffffffffffffffffffffffffffffffff1673ffffffffffffffffffffffffffffffffffffffff1681526020016002820160009054906101000a900473ffffffffffffffffffffffffffffffffffffffff1673ffffffffffffffffffffffffffffffffffffffff1673ffffffffffffffffffffffffffffffffffffffff168152602001600382015481526020016004820160009054906101000a900460ff161515151581525050848681518110610a6657610a65613579565b5b6020026020010181905250600185610a7e91906134fd565b945050505b8080610a8e90613531565b915050610913565b5080945050505050919050565b600b60009054906101000a900473ffffffffffffffffffffffffffffffffffffffff1673ffffffffffffffffffffffffffffffffffffffff163373ffffffffffffffffffffffffffffffffffffffff1614610b33576040517f08c379a0000000000000000000000000000000000000000000000000000000008152600401610b2a906135f4565b60405180910390fd5b47811115610b76576040517f08c379a0000000000000000000000000000000000000000000000000000000008152600401610b6d90613660565b60405180910390fd5b6000600b60009054906101000a900473ffffffffffffffffffffffffffffffffffffffff1673ffffffffffffffffffffffffffffffffffffffff1682604051610bbe906136b1565b60006040518083038185875af1925050503d8060008114610bfb576040519150601f19603f3d011682016040523d82523d6000602084013e610c00565b606091505b5050905080610c44576040517f08c379a0000000000000000000000000000000000000000000000000000000008152600401610c3b90613712565b60405180910390fd5b5050565b600c60003373ffffffffffffffffffffffffffffffffffffffff1673ffffffffffffffffffffffffffffffffffffffff16815260200190815260200160002060009054906101000a900460ff16610cd4576040517f08c379a0000000000000000000000000000000000000000000000000000000008152600401610ccb9061377e565b60405180910390fd5b600a543414610d18576040517f08c379a0000000000000000000000000000000000000000000000000000000008152600401610d0f906137ea565b60405180910390fd5b7f342391d881b260faba344bcdceb81718335063790ef64b017dfe1fbec5eb7d9133604051610d479190612cd3565b60405180910390a1565b60606000610d5f6007611eeb565b90506000808267ffffffffffffffff811115610d7e57610d7d612f1d565b5b604051908082528060200260200182016040528015610db757816020015b610da4612a51565b815260200190600190039081610d9c5790505b50905060005b83811015610f8c573073ffffffffffffffffffffffffffffffffffffffff16600d6000600184610ded91906134fd565b815260200190815260200160002060020160009054906101000a900473ffffffffffffffffffffffffffffffffffffffff1673ffffffffffffffffffffffffffffffffffffffff1603610f79576000600182610e4991906134fd565b90506000600d60008381526020019081526020016000209050806040518060a0016040529081600082015481526020016001820160009054906101000a900473ffffffffffffffffffffffffffffffffffffffff1673ffffffffffffffffffffffffffffffffffffffff1673ffffffffffffffffffffffffffffffffffffffff1681526020016002820160009054906101000a900473ffffffffffffffffffffffffffffffffffffffff1673ffffffffffffffffffffffffffffffffffffffff1673ffffffffffffffffffffffffffffffffffffffff168152602001600382015481526020016004820160009054906101000a900460ff161515151581525050848681518110610f5c57610f5b613579565b5b6020026020010181905250600185610f7491906134fd565b945050505b8080610f8490613531565b915050610dbd565b5080935050505090565b610fa06009611ef9565b6000610fac6009611eeb565b905060405180606001604052808281526020018381526020013373ffffffffffffffffffffffffffffffffffffffff16815250600e6000838152602001908152602001600020600082015181600001556020820151816001015560408201518160020160006101000a81548173ffffffffffffffffffffffffffffffffffffffff021916908373ffffffffffffffffffffffffffffffffffffffff160217905550905050807f76eeab97092ad834df0b561eae45cd54f5583ebef4240be2483d115d9fb4ed61833360405161108292919061380a565b60405180910390a25050565b6110a98383836040518060200160405280600081525061175b565b505050565b60006110ba6007611ef9565b60006110c66007611eeb565b90506110d23382611f0f565b6110dc818461212c565b6110e5816121d0565b80915050919050565b6000806110fa8361234b565b9050600073ffffffffffffffffffffffffffffffffffffffff168173ffffffffffffffffffffffffffffffffffffffff160361116b576040517f08c379a00000000000000000000000000000000000000000000000000000000081526004016111629061387f565b60405180910390fd5b80915050919050565b60008073ffffffffffffffffffffffffffffffffffffffff168273ffffffffffffffffffffffffffffffffffffffff16036111e4576040517f08c379a00000000000000000000000000000000000000000000000000000000081526004016111db90613911565b60405180910390fd5b600360008373ffffffffffffffffffffffffffffffffffffffff1673ffffffffffffffffffffffffffffffffffffffff168152602001908152602001600020549050919050565b600c60003373ffffffffffffffffffffffffffffffffffffffff1673ffffffffffffffffffffffffffffffffffffffff16815260200190815260200160002060009054906101000a900460ff16156112b8576040517f08c379a00000000000000000000000000000000000000000000000000000000081526004016112af9061397d565b60405180910390fd5b6001600c60003373ffffffffffffffffffffffffffffffffffffffff1673ffffffffffffffffffffffffffffffffffffffff16815260200190815260200160002060006101000a81548160ff0219169083151502179055507f0a4aaad73235c04f36913f1a722df062186fab3d31654a6d28265e505d9e16133360405161133f9190612cd3565b60405180910390a1565b606060006113576007611eeb565b905060008060005b838110156113ff573373ffffffffffffffffffffffffffffffffffffffff16600d600060018461138f91906134fd565b815260200190815260200160002060010160009054906101000a900473ffffffffffffffffffffffffffffffffffffffff1673ffffffffffffffffffffffffffffffffffffffff16036113ec576001836113e991906134fd565b92505b80806113f790613531565b91505061135f565b5060008267ffffffffffffffff81111561141c5761141b612f1d565b5b60405190808252806020026020018201604052801561145557816020015b611442612a51565b81526020019060019003908161143a5790505b50905060005b8481101561162a573373ffffffffffffffffffffffffffffffffffffffff16600d600060018461148b91906134fd565b815260200190815260200160002060010160009054906101000a900473ffffffffffffffffffffffffffffffffffffffff1673ffffffffffffffffffffffffffffffffffffffff16036116175760006001826114e791906134fd565b90506000600d60008381526020019081526020016000209050806040518060a0016040529081600082015481526020016001820160009054906101000a900473ffffffffffffffffffffffffffffffffffffffff1673ffffffffffffffffffffffffffffffffffffffff1673ffffffffffffffffffffffffffffffffffffffff1681526020016002820160009054906101000a900473ffffffffffffffffffffffffffffffffffffffff1673ffffffffffffffffffffffffffffffffffffffff1673ffffffffffffffffffffffffffffffffffffffff168152602001600382015481526020016004820160009054906101000a900460ff1615151515815250508486815181106115fa576115f9613579565b5b602002602001018190525060018561161291906134fd565b945050505b808061162290613531565b91505061145b565b508094505050505090565b606060018054611644906132e7565b80601f0160208091040260200160405190810160405280929190818152602001828054611670906132e7565b80156116bd5780601f10611692576101008083540402835291602001916116bd565b820191906000526020600020905b8154815290600101906020018083116116a057829003601f168201915b5050505050905090565b6116d96116d2611a9c565b8383612388565b5050565b60078060000154905081565b6000806116f66009611eeb565b90506000805b828110156117505784600e600060018461171691906134fd565b8152602001908152602001600020600101540361173d5760018261173a91906134fd565b91505b808061174890613531565b9150506116fc565b508092505050919050565b61176c611766611a9c565b83611b5d565b6117ab576040517f08c379a00000000000000000000000000000000000000000000000000000000081526004016117a2906134ae565b60405180910390fd5b6117b7848484846124f4565b50505050565b60606117c882611a51565b60006006600084815260200190815260200160002080546117e8906132e7565b80601f0160208091040260200160405190810160405280929190818152602001828054611814906132e7565b80156118615780601f1061183657610100808354040283529160200191611861565b820191906000526020600020905b81548152906001019060200180831161184457829003601f168201915b505050505090506000611872612550565b905060008151036118875781925050506118ca565b6000825111156118bc5780826040516020016118a49291906139d9565b604051602081830303815290604052925050506118ca565b6118c584612567565b925050505b919050565b6000600560008473ffffffffffffffffffffffffffffffffffffffff1673ffffffffffffffffffffffffffffffffffffffff16815260200190815260200160002060008373ffffffffffffffffffffffffffffffffffffffff1673ffffffffffffffffffffffffffffffffffffffff16815260200190815260200160002060009054906101000a900460ff16905092915050565b60098060000154905081565b60007f80ac58cd000000000000000000000000000000000000000000000000000000007bffffffffffffffffffffffffffffffffffffffffffffffffffffffff1916827bffffffffffffffffffffffffffffffffffffffffffffffffffffffff19161480611a3a57507f5b5e139f000000000000000000000000000000000000000000000000000000007bffffffffffffffffffffffffffffffffffffffffffffffffffffffff1916827bffffffffffffffffffffffffffffffffffffffffffffffffffffffff1916145b80611a4a5750611a49826125cf565b5b9050919050565b611a5a81612639565b611a99576040517f08c379a0000000000000000000000000000000000000000000000000000000008152600401611a909061387f565b60405180910390fd5b50565b600033905090565b816004600083815260200190815260200160002060006101000a81548173ffffffffffffffffffffffffffffffffffffffff021916908373ffffffffffffffffffffffffffffffffffffffff160217905550808273ffffffffffffffffffffffffffffffffffffffff16611b17836110ee565b73ffffffffffffffffffffffffffffffffffffffff167f8c5be1e5ebec7d5bd14f71427d1e84f3dd0314c0f7b2291e5b200ac8c7c3b92560405160405180910390a45050565b600080611b69836110ee565b90508073ffffffffffffffffffffffffffffffffffffffff168473ffffffffffffffffffffffffffffffffffffffff161480611bab5750611baa81856118cf565b5b80611be957508373ffffffffffffffffffffffffffffffffffffffff16611bd184610690565b73ffffffffffffffffffffffffffffffffffffffff16145b91505092915050565b8273ffffffffffffffffffffffffffffffffffffffff16611c12826110ee565b73ffffffffffffffffffffffffffffffffffffffff1614611c68576040517f08c379a0000000000000000000000000000000000000000000000000000000008152600401611c5f90613a6f565b60405180910390fd5b600073ffffffffffffffffffffffffffffffffffffffff168273ffffffffffffffffffffffffffffffffffffffff1603611cd7576040517f08c379a0000000000000000000000000000000000000000000000000000000008152600401611cce90613b01565b60405180910390fd5b611ce4838383600161267a565b8273ffffffffffffffffffffffffffffffffffffffff16611d04826110ee565b73ffffffffffffffffffffffffffffffffffffffff1614611d5a576040517f08c379a0000000000000000000000000000000000000000000000000000000008152600401611d5190613a6f565b60405180910390fd5b6004600082815260200190815260200160002060006101000a81549073ffffffffffffffffffffffffffffffffffffffff02191690556001600360008573ffffffffffffffffffffffffffffffffffffffff1673ffffffffffffffffffffffffffffffffffffffff168152602001908152602001600020600082825403925050819055506001600360008473ffffffffffffffffffffffffffffffffffffffff1673ffffffffffffffffffffffffffffffffffffffff16815260200190815260200160002060008282540192505081905550816002600083815260200190815260200160002060006101000a81548173ffffffffffffffffffffffffffffffffffffffff021916908373ffffffffffffffffffffffffffffffffffffffff160217905550808273ffffffffffffffffffffffffffffffffffffffff168473ffffffffffffffffffffffffffffffffffffffff167fddf252ad1be2c89b69c2b068fc378daa952ba7f163c4a11628f55a4df523b3ef60405160405180910390a4611ee68383836001612680565b505050565b600081600001549050919050565b6001816000016000828254019250508190555050565b600073ffffffffffffffffffffffffffffffffffffffff168273ffffffffffffffffffffffffffffffffffffffff1603611f7e576040517f08c379a0000000000000000000000000000000000000000000000000000000008152600401611f7590613b6d565b60405180910390fd5b611f8781612639565b15611fc7576040517f08c379a0000000000000000000000000000000000000000000000000000000008152600401611fbe90613bd9565b60405180910390fd5b611fd560008383600161267a565b611fde81612639565b1561201e576040517f08c379a000000000000000000000000000000000000000000000000000000000815260040161201590613bd9565b60405180910390fd5b6001600360008473ffffffffffffffffffffffffffffffffffffffff1673ffffffffffffffffffffffffffffffffffffffff16815260200190815260200160002060008282540192505081905550816002600083815260200190815260200160002060006101000a81548173ffffffffffffffffffffffffffffffffffffffff021916908373ffffffffffffffffffffffffffffffffffffffff160217905550808273ffffffffffffffffffffffffffffffffffffffff16600073ffffffffffffffffffffffffffffffffffffffff167fddf252ad1be2c89b69c2b068fc378daa952ba7f163c4a11628f55a4df523b3ef60405160405180910390a4612128600083836001612680565b5050565b61213582612639565b612174576040517f08c379a000000000000000000000000000000000000000000000000000000000815260040161216b90613c6b565b60405180910390fd5b806006600084815260200190815260200160002090816121949190613e37565b507ff8e1a15aba9398e019f0b49df1a4fde98ee17ae345cb5f6b5e2c27f5033e8ce7826040516121c491906130a0565b60405180910390a15050565b6040518060a001604052808281526020013373ffffffffffffffffffffffffffffffffffffffff1681526020013073ffffffffffffffffffffffffffffffffffffffff16815260200142815260200160001515815250600d60008381526020019081526020016000206000820151816000015560208201518160010160006101000a81548173ffffffffffffffffffffffffffffffffffffffff021916908373ffffffffffffffffffffffffffffffffffffffff16021790555060408201518160020160006101000a81548173ffffffffffffffffffffffffffffffffffffffff021916908373ffffffffffffffffffffffffffffffffffffffff1602179055506060820151816003015560808201518160040160006101000a81548160ff021916908315150217905550905050612309333083611bf2565b807f7d13d9c1f40780d58d02bd1ebd99f5e78d97e0762d439c82e799521b856c3c3833304260006040516123409493929190613f09565b60405180910390a250565b60006002600083815260200190815260200160002060009054906101000a900473ffffffffffffffffffffffffffffffffffffffff169050919050565b8173ffffffffffffffffffffffffffffffffffffffff168373ffffffffffffffffffffffffffffffffffffffff16036123f6576040517f08c379a00000000000000000000000000000000000000000000000000000000081526004016123ed90613f9a565b60405180910390fd5b80600560008573ffffffffffffffffffffffffffffffffffffffff1673ffffffffffffffffffffffffffffffffffffffff16815260200190815260200160002060008473ffffffffffffffffffffffffffffffffffffffff1673ffffffffffffffffffffffffffffffffffffffff16815260200190815260200160002060006101000a81548160ff0219169083151502179055508173ffffffffffffffffffffffffffffffffffffffff168373ffffffffffffffffffffffffffffffffffffffff167f17307eab39ab6107e8899845ad3d59bd9653f200f220920489ca2b5937696c31836040516124e79190612b62565b60405180910390a3505050565b6124ff848484611bf2565b61250b84848484612686565b61254a576040517f08c379a00000000000000000000000000000000000000000000000000000000081526004016125419061402c565b60405180910390fd5b50505050565b606060405180602001604052806000815250905090565b606061257282611a51565b600061257c612550565b9050600081511161259c57604051806020016040528060008152506125c7565b806125a68461280d565b6040516020016125b79291906139d9565b6040516020818303038152906040525b915050919050565b60007f01ffc9a7000000000000000000000000000000000000000000000000000000007bffffffffffffffffffffffffffffffffffffffffffffffffffffffff1916827bffffffffffffffffffffffffffffffffffffffffffffffffffffffff1916149050919050565b60008073ffffffffffffffffffffffffffffffffffffffff1661265b8361234b565b73ffffffffffffffffffffffffffffffffffffffff1614159050919050565b50505050565b50505050565b60006126a78473ffffffffffffffffffffffffffffffffffffffff166128db565b15612800578373ffffffffffffffffffffffffffffffffffffffff1663150b7a026126d0611a9c565b8786866040518563ffffffff1660e01b81526004016126f294939291906140a1565b6020604051808303816000875af192505050801561272e57506040513d601f19601f8201168201806040525081019061272b9190614102565b60015b6127b0573d806000811461275e576040519150601f19603f3d011682016040523d82523d6000602084013e612763565b606091505b5060008151036127a8576040517f08c379a000000000000000000000000000000000000000000000000000000000815260040161279f9061402c565b60405180910390fd5b805181602001fd5b63150b7a0260e01b7bffffffffffffffffffffffffffffffffffffffffffffffffffffffff1916817bffffffffffffffffffffffffffffffffffffffffffffffffffffffff191614915050612805565b600190505b949350505050565b60606000600161281c846128fe565b01905060008167ffffffffffffffff81111561283b5761283a612f1d565b5b6040519080825280601f01601f19166020018201604052801561286d5781602001600182028036833780820191505090505b509050600082602001820190505b6001156128d0578080600190039150507f3031323334353637383961626364656600000000000000000000000000000000600a86061a8153600a85816128c4576128c361412f565b5b0494506000850361287b575b819350505050919050565b6000808273ffffffffffffffffffffffffffffffffffffffff163b119050919050565b600080600090507a184f03e93ff9f4daa797ed6e38ed64bf6a1f010000000000000000831061295c577a184f03e93ff9f4daa797ed6e38ed64bf6a1f01000000000000000083816129525761295161412f565b5b0492506040810190505b6d04ee2d6d415b85acef81000000008310612999576d04ee2d6d415b85acef8100000000838161298f5761298e61412f565b5b0492506020810190505b662386f26fc1000083106129c857662386f26fc1000083816129be576129bd61412f565b5b0492506010810190505b6305f5e10083106129f1576305f5e10083816129e7576129e661412f565b5b0492506008810190505b6127108310612a16576127108381612a0c57612a0b61412f565b5b0492506004810190505b60648310612a395760648381612a2f57612a2e61412f565b5b0492506002810190505b600a8310612a48576001810190505b80915050919050565b6040518060a0016040528060008152602001600073ffffffffffffffffffffffffffffffffffffffff168152602001600073ffffffffffffffffffffffffffffffffffffffff168152602001600081526020016000151581525090565b6000604051905090565b600080fd5b600080fd5b60007fffffffff0000000000000000000000000000000000000000000000000000000082169050919050565b612af781612ac2565b8114612b0257600080fd5b50565b600081359050612b1481612aee565b92915050565b600060208284031215612b3057612b2f612ab8565b5b6000612b3e84828501612b05565b91505092915050565b60008115159050919050565b612b5c81612b47565b82525050565b6000602082019050612b776000830184612b53565b92915050565b600081519050919050565b600082825260208201905092915050565b60005b83811015612bb7578082015181840152602081019050612b9c565b60008484015250505050565b6000601f19601f8301169050919050565b6000612bdf82612b7d565b612be98185612b88565b9350612bf9818560208601612b99565b612c0281612bc3565b840191505092915050565b60006020820190508181036000830152612c278184612bd4565b905092915050565b6000819050919050565b612c4281612c2f565b8114612c4d57600080fd5b50565b600081359050612c5f81612c39565b92915050565b600060208284031215612c7b57612c7a612ab8565b5b6000612c8984828501612c50565b91505092915050565b600073ffffffffffffffffffffffffffffffffffffffff82169050919050565b6000612cbd82612c92565b9050919050565b612ccd81612cb2565b82525050565b6000602082019050612ce86000830184612cc4565b92915050565b612cf781612cb2565b8114612d0257600080fd5b50565b600081359050612d1481612cee565b92915050565b60008060408385031215612d3157612d30612ab8565b5b6000612d3f85828601612d05565b9250506020612d5085828601612c50565b9150509250929050565b600080600060608486031215612d7357612d72612ab8565b5b6000612d8186828701612d05565b9350506020612d9286828701612d05565b9250506040612da386828701612c50565b9150509250925092565b600081519050919050565b600082825260208201905092915050565b6000819050602082019050919050565b612de281612c2f565b82525050565b612df181612cb2565b82525050565b612e0081612b47565b82525050565b60a082016000820151612e1c6000850182612dd9565b506020820151612e2f6020850182612de8565b506040820151612e426040850182612de8565b506060820151612e556060850182612dd9565b506080820151612e686080850182612df7565b50505050565b6000612e7a8383612e06565b60a08301905092915050565b6000602082019050919050565b6000612e9e82612dad565b612ea88185612db8565b9350612eb383612dc9565b8060005b83811015612ee4578151612ecb8882612e6e565b9750612ed683612e86565b925050600181019050612eb7565b5085935050505092915050565b60006020820190508181036000830152612f0b8184612e93565b905092915050565b600080fd5b600080fd5b7f4e487b7100000000000000000000000000000000000000000000000000000000600052604160045260246000fd5b612f5582612bc3565b810181811067ffffffffffffffff82111715612f7457612f73612f1d565b5b80604052505050565b6000612f87612aae565b9050612f938282612f4c565b919050565b600067ffffffffffffffff821115612fb357612fb2612f1d565b5b612fbc82612bc3565b9050602081019050919050565b82818337600083830152505050565b6000612feb612fe684612f98565b612f7d565b90508281526020810184848401111561300757613006612f18565b5b613012848285612fc9565b509392505050565b600082601f83011261302f5761302e612f13565b5b813561303f848260208601612fd8565b91505092915050565b60006020828403121561305e5761305d612ab8565b5b600082013567ffffffffffffffff81111561307c5761307b612abd565b5b6130888482850161301a565b91505092915050565b61309a81612c2f565b82525050565b60006020820190506130b56000830184613091565b92915050565b6000602082840312156130d1576130d0612ab8565b5b60006130df84828501612d05565b91505092915050565b6130f181612b47565b81146130fc57600080fd5b50565b60008135905061310e816130e8565b92915050565b6000806040838503121561312b5761312a612ab8565b5b600061313985828601612d05565b925050602061314a858286016130ff565b9150509250929050565b600067ffffffffffffffff82111561316f5761316e612f1d565b5b61317882612bc3565b9050602081019050919050565b600061319861319384613154565b612f7d565b9050828152602081018484840111156131b4576131b3612f18565b5b6131bf848285612fc9565b509392505050565b600082601f8301126131dc576131db612f13565b5b81356131ec848260208601613185565b91505092915050565b6000806000806080858703121561320f5761320e612ab8565b5b600061321d87828801612d05565b945050602061322e87828801612d05565b935050604061323f87828801612c50565b925050606085013567ffffffffffffffff8111156132605761325f612abd565b5b61326c878288016131c7565b91505092959194509250565b6000806040838503121561328f5761328e612ab8565b5b600061329d85828601612d05565b92505060206132ae85828601612d05565b9150509250929050565b7f4e487b7100000000000000000000000000000000000000000000000000000000600052602260045260246000fd5b600060028204905060018216806132ff57607f821691505b602082108103613312576133116132b8565b5b50919050565b7f4552433732313a20617070726f76616c20746f2063757272656e74206f776e6560008201527f7200000000000000000000000000000000000000000000000000000000000000602082015250565b6000613374602183612b88565b915061337f82613318565b604082019050919050565b600060208201905081810360008301526133a381613367565b9050919050565b7f4552433732313a20617070726f76652063616c6c6572206973206e6f7420746f60008201527f6b656e206f776e6572206f7220617070726f76656420666f7220616c6c000000602082015250565b6000613406603d83612b88565b9150613411826133aa565b604082019050919050565b60006020820190508181036000830152613435816133f9565b9050919050565b7f4552433732313a2063616c6c6572206973206e6f7420746f6b656e206f776e6560008201527f72206f7220617070726f76656400000000000000000000000000000000000000602082015250565b6000613498602d83612b88565b91506134a38261343c565b604082019050919050565b600060208201905081810360008301526134c78161348b565b9050919050565b7f4e487b7100000000000000000000000000000000000000000000000000000000600052601160045260246000fd5b600061350882612c2f565b915061351383612c2f565b925082820190508082111561352b5761352a6134ce565b5b92915050565b600061353c82612c2f565b91507fffffffffffffffffffffffffffffffffffffffffffffffffffffffffffffffff820361356e5761356d6134ce565b5b600182019050919050565b7f4e487b7100000000000000000000000000000000000000000000000000000000600052603260045260246000fd5b7f41646472657373206973206e6f7420746865206f776e65720000000000000000600082015250565b60006135de601883612b88565b91506135e9826135a8565b602082019050919050565b6000602082019050818103600083015261360d816135d1565b9050919050565b7f56616c756520686967686572207468616e2062616c616e63652e000000000000600082015250565b600061364a601a83612b88565b915061365582613614565b602082019050919050565b600060208201905081810360008301526136798161363d565b9050919050565b600081905092915050565b50565b600061369b600083613680565b91506136a68261368b565b600082019050919050565b60006136bc8261368e565b9150819050919050565b7f54686572652077617320616e206572726f722100000000000000000000000000600082015250565b60006136fc601383612b88565b9150613707826136c6565b602082019050919050565b6000602082019050818103600083015261372b816136ef565b9050919050565b7f4163636f756e74206e6f74207375627363726962656400000000000000000000600082015250565b6000613768601683612b88565b915061377382613732565b602082019050919050565b600060208201905081810360008301526137978161375b565b9050919050565b7f57726f6e672076616c75652e0000000000000000000000000000000000000000600082015250565b60006137d4600c83612b88565b91506137df8261379e565b602082019050919050565b60006020820190508181036000830152613803816137c7565b9050919050565b600060408201905061381f6000830185613091565b61382c6020830184612cc4565b9392505050565b7f4552433732313a20696e76616c696420746f6b656e2049440000000000000000600082015250565b6000613869601883612b88565b915061387482613833565b602082019050919050565b600060208201905081810360008301526138988161385c565b9050919050565b7f4552433732313a2061646472657373207a65726f206973206e6f74206120766160008201527f6c6964206f776e65720000000000000000000000000000000000000000000000602082015250565b60006138fb602983612b88565b91506139068261389f565b604082019050919050565b6000602082019050818103600083015261392a816138ee565b9050919050565b7f4163636f756e7420616c72656164792073756273637269626564000000000000600082015250565b6000613967601a83612b88565b915061397282613931565b602082019050919050565b600060208201905081810360008301526139968161395a565b9050919050565b600081905092915050565b60006139b382612b7d565b6139bd818561399d565b93506139cd818560208601612b99565b80840191505092915050565b60006139e582856139a8565b91506139f182846139a8565b91508190509392505050565b7f4552433732313a207472616e736665722066726f6d20696e636f72726563742060008201527f6f776e6572000000000000000000000000000000000000000000000000000000602082015250565b6000613a59602583612b88565b9150613a64826139fd565b604082019050919050565b60006020820190508181036000830152613a8881613a4c565b9050919050565b7f4552433732313a207472616e7366657220746f20746865207a65726f2061646460008201527f7265737300000000000000000000000000000000000000000000000000000000602082015250565b6000613aeb602483612b88565b9150613af682613a8f565b604082019050919050565b60006020820190508181036000830152613b1a81613ade565b9050919050565b7f4552433732313a206d696e7420746f20746865207a65726f2061646472657373600082015250565b6000613b57602083612b88565b9150613b6282613b21565b602082019050919050565b60006020820190508181036000830152613b8681613b4a565b9050919050565b7f4552433732313a20746f6b656e20616c7265616479206d696e74656400000000600082015250565b6000613bc3601c83612b88565b9150613bce82613b8d565b602082019050919050565b60006020820190508181036000830152613bf281613bb6565b9050919050565b7f45524337323155524953746f726167653a2055524920736574206f66206e6f6e60008201527f6578697374656e7420746f6b656e000000000000000000000000000000000000602082015250565b6000613c55602e83612b88565b9150613c6082613bf9565b604082019050919050565b60006020820190508181036000830152613c8481613c48565b9050919050565b60008190508160005260206000209050919050565b60006020601f8301049050919050565b600082821b905092915050565b600060088302613ced7fffffffffffffffffffffffffffffffffffffffffffffffffffffffffffffffff82613cb0565b613cf78683613cb0565b95508019841693508086168417925050509392505050565b6000819050919050565b6000613d34613d2f613d2a84612c2f565b613d0f565b612c2f565b9050919050565b6000819050919050565b613d4e83613d19565b613d62613d5a82613d3b565b848454613cbd565b825550505050565b600090565b613d77613d6a565b613d82818484613d45565b505050565b5b81811015613da657613d9b600082613d6f565b600181019050613d88565b5050565b601f821115613deb57613dbc81613c8b565b613dc584613ca0565b81016020851015613dd4578190505b613de8613de085613ca0565b830182613d87565b50505b505050565b600082821c905092915050565b6000613e0e60001984600802613df0565b1980831691505092915050565b6000613e278383613dfd565b9150826002028217905092915050565b613e4082612b7d565b67ffffffffffffffff811115613e5957613e58612f1d565b5b613e6382546132e7565b613e6e828285613daa565b600060209050601f831160018114613ea15760008415613e8f578287015190505b613e998582613e1b565b865550613f01565b601f198416613eaf86613c8b565b60005b82811015613ed757848901518255600182019150602085019450602081019050613eb2565b86831015613ef45784890151613ef0601f891682613dfd565b8355505b6001600288020188555050505b505050505050565b6000608082019050613f1e6000830187612cc4565b613f2b6020830186612cc4565b613f386040830185613091565b613f456060830184612b53565b95945050505050565b7f4552433732313a20617070726f766520746f2063616c6c657200000000000000600082015250565b6000613f84601983612b88565b9150613f8f82613f4e565b602082019050919050565b60006020820190508181036000830152613fb381613f77565b9050919050565b7f4552433732313a207472616e7366657220746f206e6f6e20455243373231526560008201527f63656976657220696d706c656d656e7465720000000000000000000000000000602082015250565b6000614016603283612b88565b915061402182613fba565b604082019050919050565b6000602082019050818103600083015261404581614009565b9050919050565b600081519050919050565b600082825260208201905092915050565b60006140738261404c565b61407d8185614057565b935061408d818560208601612b99565b61409681612bc3565b840191505092915050565b60006080820190506140b66000830187612cc4565b6140c36020830186612cc4565b6140d06040830185613091565b81810360608301526140e28184614068565b905095945050505050565b6000815190506140fc81612aee565b92915050565b60006020828403121561411857614117612ab8565b5b6000614126848285016140ed565b91505092915050565b7f4e487b7100000000000000000000000000000000000000000000000000000000600052601260045260246000fdfea2646970667358221220c6a6bfdc2cab16227d6fb83b9b7bfedbf3c6a1efb356d762944c18dbe3887a4064736f6c63430008110033",
  "linkReferences": {},
  "deployedLinkReferences": {}
}